:100000000C942A000C943C000C943C000C943C0092
:100010000C943C000C943C000C943C000C943C0070
:100020000C943C000C943C000C943E000C943C005E
:100030000C943C000C943C000C943C000C943C0050
:100040000C943C000C943C000C943C000C943C0040
:100050000C943C0011241FBECFE5D8E0DEBFCDBF1D
:1000600020E0A0E6B0E001C01D92A637B207E1F79C
:100070000E948F000C94EC000C9400001F920F92D1
:100080000FB60F9211248F939F93AF93BF93EF936B
:10009000FF9380916E0090916F00A0917000B091DD
:1000A00071000196A11DB11D80936E0090936F00A9
:1000B000A0937000B0937100E0E6F0E08481958138
:1000C000A681B7810196A11DB11D84839583A68366
:1000D000B783FF91EF91BF91AF919F918F910F9057
:1000E0000FBE0F901F90189583B7886083BF83B7AA
:1000F0008F7B83BF83B7836083BF89B7826089BFEB
:100100008CE78CBF12BE0895F89460916E007091D8
:100110006F008091700090917100789408950E9412
:100120007400B99AC198969A8E9878940E94840027
:10013000609360007093610080936200909363000D
:100140001092640010926500109266001092670091
:10015000C2E080B380748093680090916900891731
:1001600061F0809369000E94840060936000709346
:10017000610080936200909363000E94840000916C
:100180006000109161002091620030916300601B5B
:10019000710B820B930B6233710581059105B8F0E9
:1001A0008091680090916A00981739F080936A00F6
:1001B000811103C088B38C2788BB0E9484006093A0
:1001C000600070936100809362009093630080915F
:0C01D000680080936900BDCFF894FFCF59
:00000001FF
