:100000000C942A000C943C000C943C000C943C0092
:100010000C943C000C943C000C943C000C943C0070
:100020000C943C000C943C000C943E000C943C005E
:100030000C943C000C943C000C943C000C943C0050
:100040000C943C000C943C000C943C000C943C0040
:100050000C943C0011241FBECFE5D8E0DEBFCDBF1D
:1000600020E0A0E6B0E001C01D92A337B207E1F79F
:100070000E9434010C945B010C9400001F920F92BB
:100080000FB60F9211248F939F93AF93BF938091DC
:10009000600090916100A0916200B09163000196B0
:1000A000A11DB11D8093600090936100A093620038
:1000B000B0936300BF91AF919F918F910F900FBE4E
:1000C0000F901F90189513BE83B7886083BF83B7C6
:1000D0008F7B83BF83B7836083BF89B7826089BF0B
:1000E0008CE78CBF12BE0895EF920F93FC01108233
:1000F000118212821382148216821582E78271871E
:10010000608753874287358724870687F9014081B6
:1001100081E090E001C0880F0A95EAF7982F90954A
:1001200094239083FB019081892B80830F91EF9022
:100130000895F89460916000709161008091620070
:1001400090916300789408958F929F92AF92BF929E
:10015000CF92DF92EF92FF920F934B015C01821AD4
:10016000930AA40AB50AC02ED12CF12CE12C8C14D0
:100170009D04AE04BF0490F4E1E0621773078407A6
:10018000950708F0E0E08E2F0F91FF90EF90DF9041
:10019000CF90BF90AF909F908F90089581E0F4CF63
:1001A0008F929F92AF92BF92CF92DF92EF92FF9287
:1001B0000F931F93CF93DF93EC01EA85FB8580813A
:1001C00090E02E8502C0959587952A95E2F7809557
:1001D0009095817099278C839D81981731F00E94AA
:1001E0009900688379838A839B830F81C880D98033
:1001F000EA80FB800E9499004B015C018C189D08ED
:10020000AE08BF0810E030E020E080169106A2069C
:10021000B306C0F421E06C157D058E059F0508F03E
:1002200020E0822F882351F09C812E8129130CC05D
:100230000E949900688379838A839B838C818D8354
:1002400080E005C081E0EECF9E83992389F3DF91A2
:10025000CF911F910F91FF90EF90DF90CF90BF90C3
:10026000AF909F908F9008950E94630082E3E82EE4
:1002700006E021E330E040E350E062E370E084E632
:1002800090E00E947400B99AC19878940E949900F5
:10029000609364007093650080936600909367009C
:1002A000C2E084E690E00E94D0008823D1F388B3B6
:0A02B0008C2788BBF6CFF894FFCF2F
:00000001FF
