:100000000C942A000C9447000C9447000C94470071
:100010000C9447000C9447000C9447000C94470044
:100020000C9447000C9447000C9449000C94470032
:100030000C9447000C9447000C9447000C94470024
:100040000C9447000C9447000C9447000C94470014
:100050000C94470011241FBECFE5D8E0DEBFCDBF12
:1000600010E0A0E6B0E0E6EFF1E002C005900D92EE
:10007000A836B107D9F720E0A8E6B0E001C01D928C
:10008000AC36B207E1F70E948A000C94F9000C9498
:1000900000001F920F920FB60F9211248F939F931F
:1000A000AF93BF938091680090916900A0916A001E
:1000B000B0916B000196A11DB11D809368009093D3
:1000C0006900A0936A00B0936B00BF91AF919F91BC
:1000D0008F910F900FBE0F901F90189513BE83B78E
:1000E000886083BF83B78F7B83BF83B7836083BF01
:1000F00089B7826089BF8CE78CBF12BE0895F894DF
:10010000609168007091690080916A0090916B0025
:10011000789408950E946E00B99AC1988E98969A24
:1001200078940E947F0060936000709361008093D8
:10013000620090936300C1E0D2E080B386FB882721
:1001400080F98C278093640090916500891751F0A5
:100150000E947F0060936000709361008093620052
:10016000909363000E947F000091600010916100F5
:100170002091620030916300AB01BC01401B510B28
:10018000620B730B8091670090E0B0E0A0E048172D
:1001900059076A077B0788F0809164009091660098
:1001A00098131FC00E947F006093600070936100ED
:1001B00080936200909363000FC00E947F000091C3
:1001C000600010916100209162003091630060171F
:1001D00071078207930700F38091640080936500A4
:1001E000ACCF809366008823E9F288B38D2788BB63
:0601F000D9CFF894FFCF07
:0801F6000000000000000032CF
:00000001FF
