:100000000C942A000C943C000C943C000C943C0092
:100010000C943C000C943C000C943C000C943C0070
:100020000C943C000C943C000C943E000C943C005E
:100030000C943C000C943C000C943C000C943C0050
:100040000C943C000C943C000C943C000C943C0040
:100050000C943C0011241FBECFE5D8E0DEBFCDBF1D
:1000600020E0A0E6B0E001C01D92A237B207E1F7A0
:100070000E94DB000C944A010C9400001F920F9226
:100080000FB60F9211248F939F93AF93BF938091DC
:10009000600090916100A0916200B09163000196B0
:1000A000A11DB11D8093600090936100A093620038
:1000B000B0936300BF91AF919F918F910F900FBE4E
:1000C0000F901F90189513BE83B7886083BF83B7C6
:1000D0008F7B83BF83B7836083BF89B7826089BF0B
:1000E0008CE78CBF12BE0895EF920F93FC01DB01E9
:1000F0001082118212821382148216821582E78284
:1001000071876087538742872487058761B381E0C1
:1001100090E0AC0101C0440F2A95EAF7342F3095E6
:10012000362331BB2C91242B2C9327B301C0880F8D
:100130000A95EAF7922F982B97BB9C91809589237B
:100140008C930F91EF900895F894609160007091F6
:1001500061008091620090916300789408958F927D
:100160009F92AF92BF92CF92DF92EF92FF920F9346
:100170004B015C01821A930AA40AB50AC02ED12C45
:10018000F12CE12C8C149D04AE04BF0490F4E1E04A
:10019000621773078407950708F0E0E08E2F0F9130
:1001A000FF90EF90DF90CF90BF90AF909F908F9097
:1001B000089581E0F4CF0E94630082E3E82E01E01D
:1001C00026E040E350E062E370E084E690E00E94C5
:1001D000740078940E94A40060936400709365009A
:1001E0008093660090936700D2E080B386FB8827F7
:1001F00080F98093680090916900891751F00E94FE
:10020000A4006093640070936500809366009093EF
:10021000670080906B00C0906400D0906500E09013
:100220006600F09067000E94A4008B019C010C19ED
:100230001D092E093F09912CB12CA12C0815190577
:100240002A053B0558F421E030E06C157D058E054C
:100250009F0510F030E020E0232BB9F0809168007A
:1002600090916A00981739F080936A00882319F0FA
:1002700088B38D2788BB0E94A400609364007093AC
:10028000650080936600909367008091680080937A
:080290006900ABCFF894FFCF29
:00000001FF
