:100000000C942A000C9447000C9447000C94470071
:100010000C9447000C9447000C9447000C94470044
:100020000C9447000C9447000C9449000C94470032
:100030000C9447000C9447000C9447000C94470024
:100040000C9447000C9447000C9447000C94470014
:100050000C94470011241FBECFE5D8E0DEBFCDBF12
:1000600010E0A0E6B0E0E4E4F2E002C005900D92FA
:10007000A836B107D9F720E0A8E6B0E001C01D928C
:10008000AC36B207E1F70E94BB000C9420010C943F
:1000900000001F920F920FB60F9211248F939F931F
:1000A000AF93BF938091680090916900A0916A001E
:1000B000B0916B000196A11DB11D809368009093D3
:1000C0006900A0936A00B0936B00BF91AF919F91BC
:1000D0008F910F900FBE0F901F90189513BE83B78E
:1000E000886083BF83B78F7B83BF83B7836083BF01
:1000F00089B7826089BF8CE78CBF12BE0895B99A18
:10010000C1988E98969A0895F894609168007091BD
:10011000690080916A0090916B00789408958F92A5
:100120009F92AF92BF92CF92DF92EF92FF920F9386
:100130004B015C01821A930AA40AB50AC02ED12C85
:10014000F12CE12C8C149D04AE04BF0490F4E1E08A
:10015000621773078407950708F0E0E08E2F0F9170
:10016000FF90EF90DF90CF90BF90AF909F908F90D7
:10017000089581E0F4CF0E946E000E947F00789481
:100180000E9484006093600070936100809362001D
:1001900090936300D2E080B386FB882780F9809338
:1001A000640090916500891751F00E94840060936B
:1001B0006000709361008093620090936300809070
:1001C0006700C0906000D0906100E0906200F09005
:1001D00063000E9484008B019C010C191D092E09EB
:1001E0003F09912CB12CA12C081519052A053B05B6
:1001F00058F421E030E06C157D058E059F0510F068
:1002000030E020E0232BB9F08091640090916600EB
:10021000981739F080936600882319F088B38D27EA
:1002200088BB0E948400609360007093610080939B
:100230006200909363008091640080936500ABCF6F
:04024000F894FFCF60
:08024400000000000000003280
:00000001FF
