:100000000C942A000C9434000C9434000C943400AA
:100010000C9434000C9434000C9434000C94340090
:100020000C9434000C9434000C9434000C94340080
:100030000C9434000C9434000C9434000C94340070
:100040000C9434000C9434000C9434000C94340060
:100050000C94340011241FBECFE5D8E0DEBFCDBF25
:100060000E9464000C9484000C940000CF93DF93F2
:1000700000D000D000D0CDB7DEB79E838D831A822A
:10008000198211C01C821B8205C08B819C81019644
:100090009C838B838B819C81C297B8F389819A81E1
:1000A00001969A83898329813A818D819E812817BF
:1000B000390740F3000026960FB6F894DEBF0FBE56
:1000C000CDBFDF91CF910895CF93DF93CDB7DEB74A
:1000D00087E390E0FC01208187E390E02260FC014F
:1000E000208388E390E0FC01108288E390E0FC012B
:1000F000308188E390E022E02327FC01208384EF15
:0C01000091E00E943600F1CFF894FFCF90
:00000001FF
