:100000000C942A000C9434000C9434000C943400AA
:100010000C9434000C9434000C9434000C94340090
:100020000C9434000C9434000C9434000C94340080
:100030000C9434000C9434000C9434000C94340070
:100040000C9434000C9434000C9434000C94340060
:100050000C94340011241FBECFE5D8E0DEBFCDBF25
:100060000E9436000C9458000C940000CF93DF934C
:10007000CDB7DEB787E390E02FEFFC01208381E36B
:1000800090E0FC01108288E390E0FC01108280E3A4
:1000900090E0FC018081882334F488E390E02FEF26
:1000A000FC012083F4CF88E390E0FC011082EFCFC5
:0400B000F894FFCFF2
:00000001FF
