:100000000C942A000C943C000C943C000C943C0092
:100010000C943C000C943C000C943C000C943C0070
:100020000C943C000C943C000C943E000C943C005E
:100030000C943C000C943C000C943C000C943C0050
:100040000C943C000C943C000C943C000C943C0040
:100050000C943C0011241FBECFE5D8E0DEBFCDBF1D
:1000600020E0A0E6B0E001C01D92A836B207E1F79B
:100070000E947E000C94AF000C9400001F920F921F
:100080000FB60F9211248F939F93AF93BF938091DC
:10009000600090916100A0916200B09163000196B0
:1000A000A11DB11D8093600090936100A093620038
:1000B000B0936300BF91AF919F918F910F900FBE4E
:1000C0000F901F90189583B7886083BF83B78F7B8D
:1000D00083BF83B7836083BF89B7826089BF8CE7A2
:1000E0008CBF12BE0895F894609160007091610019
:1000F0008091620090916300789408950E9463005B
:10010000B99AC19878940E947300609364007093C8
:1001100065008093660090936700C2E00E947300C0
:100120000091640010916500209166003091670095
:10013000601B710B820B930B683E73408105910528
:1001400068F388B38C2788BB0E94730060936400B7
:10015000709365008093660090936700DFCFF894FA
:02016000FFCFCF
:00000001FF
